{
  "contractName": "TodoList",
  "abi": [
    {
      "constant": true,
      "inputs": [],
      "name": "maxAmountOfTodos",
      "outputs": [
        {
          "name": "",
          "type": "uint256"
        }
      ],
      "payable": false,
      "stateMutability": "view",
      "type": "function"
    },
    {
      "constant": true,
      "inputs": [
        {
          "name": "",
          "type": "address"
        },
        {
          "name": "",
          "type": "uint256"
        }
      ],
      "name": "todos",
      "outputs": [
        {
          "name": "id",
          "type": "uint256"
        },
        {
          "name": "content",
          "type": "bytes32"
        },
        {
          "name": "owner",
          "type": "address"
        },
        {
          "name": "isCompleted",
          "type": "bool"
        },
        {
          "name": "timestamp",
          "type": "uint256"
        }
      ],
      "payable": false,
      "stateMutability": "view",
      "type": "function"
    },
    {
      "constant": true,
      "inputs": [
        {
          "name": "",
          "type": "address"
        }
      ],
      "name": "lastIds",
      "outputs": [
        {
          "name": "",
          "type": "uint256"
        }
      ],
      "payable": false,
      "stateMutability": "view",
      "type": "function"
    },
    {
      "constant": false,
      "inputs": [
        {
          "name": "_content",
          "type": "bytes32"
        }
      ],
      "name": "addTodo",
      "outputs": [],
      "payable": false,
      "stateMutability": "nonpayable",
      "type": "function"
    },
    {
      "constant": false,
      "inputs": [
        {
          "name": "_todoId",
          "type": "uint256"
        }
      ],
      "name": "markTodoAsCompleted",
      "outputs": [],
      "payable": false,
      "stateMutability": "nonpayable",
      "type": "function"
    },
    {
      "constant": true,
      "inputs": [
        {
          "name": "indexes",
          "type": "uint256[]"
        }
      ],
      "name": "returnAllTodos",
      "outputs": [
        {
          "name": "",
          "type": "uint256[]"
        },
        {
          "name": "",
          "type": "bytes32[]"
        },
        {
          "name": "",
          "type": "address[]"
        },
        {
          "name": "",
          "type": "bool[]"
        },
        {
          "name": "",
          "type": "uint256[]"
        }
      ],
      "payable": false,
      "stateMutability": "view",
      "type": "function"
    }
  ],
  "bytecode": "0x608060405234801561001057600080fd5b50610bb6806100206000396000f300608060405260043610610078576000357c0100000000000000000000000000000000000000000000000000000000900463ffffffff1680632c858bb01461007d578063332494a61461022d578063428c188914610258578063a74749181461030d578063aaed706a14610364578063da2f646014610391575b600080fd5b34801561008957600080fd5b506100b66004803603810190808035906020019082018035906020019190919293919293905050506103c2565b60405180806020018060200180602001806020018060200186810386528b818151815260200191508051906020019060200280838360005b838110156101095780820151818401526020810190506100ee565b5050505090500186810385528a818151815260200191508051906020019060200280838360005b8381101561014b578082015181840152602081019050610130565b50505050905001868103845289818151815260200191508051906020019060200280838360005b8381101561018d578082015181840152602081019050610172565b50505050905001868103835288818151815260200191508051906020019060200280838360005b838110156101cf5780820151818401526020810190506101b4565b50505050905001868103825287818151815260200191508051906020019060200280838360005b838110156102115780820151818401526020810190506101f6565b505050509050019a505050505050505050505060405180910390f35b34801561023957600080fd5b5061024261067c565b6040518082815260200191505060405180910390f35b34801561026457600080fd5b506102a3600480360381019080803573ffffffffffffffffffffffffffffffffffffffff16906020019092919080359060200190929190505050610682565b6040518086815260200185600019166000191681526020018473ffffffffffffffffffffffffffffffffffffffff1673ffffffffffffffffffffffffffffffffffffffff168152602001831515151581526020018281526020019550505050505060405180910390f35b34801561031957600080fd5b5061034e600480360381019080803573ffffffffffffffffffffffffffffffffffffffff1690602001909291905050506106f8565b6040518082815260200191505060405180910390f35b34801561037057600080fd5b5061038f60048036038101908080359060200190929190505050610710565b005b34801561039d57600080fd5b506103c060048036038101908080356000191690602001909291905050506108ab565b005b6060806060806060806060806060806000808d8d90506040519080825280602002602001820160405280156104065781602001602082028038833980820191505090505b5096508d8d905060405190808252806020026020018201604052801561043b5781602001602082028038833980820191505090505b5095508d8d90506040519080825280602002602001820160405280156104705781602001602082028038833980820191505090505b5094508d8d90506040519080825280602002602001820160405280156104a55781602001602082028038833980820191505090505b5093508d8d90506040519080825280602002602001820160405280156104da5781602001602082028038833980820191505090505b509250600091505b8d8d905082101561065c576000803373ffffffffffffffffffffffffffffffffffffffff1673ffffffffffffffffffffffffffffffffffffffff168152602001908152602001600020826103e88110151561053957fe5b6004020190508060000154878381518110151561055257fe5b90602001906020020181815250508060010154868381518110151561057357fe5b9060200190602002019060001916908160001916815250508060020160009054906101000a900473ffffffffffffffffffffffffffffffffffffffff1685838151811015156105be57fe5b9060200190602002019073ffffffffffffffffffffffffffffffffffffffff16908173ffffffffffffffffffffffffffffffffffffffff16815250508060020160149054906101000a900460ff16848381518110151561061a57fe5b90602001906020020190151590811515815250508060030154838381518110151561064157fe5b906020019060200201818152505081806001019250506104e2565b86868686869b509b509b509b509b50505050505050509295509295909350565b6103e881565b6000602052816000526040600020816103e88110151561069e57fe5b60040201600091509150508060000154908060010154908060020160009054906101000a900473ffffffffffffffffffffffffffffffffffffffff16908060020160149054906101000a900460ff16908060030154905085565b60016020528060005260406000206000915090505481565b6000803373ffffffffffffffffffffffffffffffffffffffff1673ffffffffffffffffffffffffffffffffffffffff168152602001908152602001600020816103e88110151561075c57fe5b6004020160020160009054906101000a900473ffffffffffffffffffffffffffffffffffffffff168073ffffffffffffffffffffffffffffffffffffffff163373ffffffffffffffffffffffffffffffffffffffff161415156107be57600080fd5b6103e8821015156107ce57600080fd5b6000803373ffffffffffffffffffffffffffffffffffffffff1673ffffffffffffffffffffffffffffffffffffffff168152602001908152602001600020826103e88110151561081a57fe5b6004020160020160149054906101000a900460ff1615151561083b57600080fd5b60016000803373ffffffffffffffffffffffffffffffffffffffff1673ffffffffffffffffffffffffffffffffffffffff168152602001908152602001600020836103e88110151561088957fe5b6004020160020160146101000a81548160ff0219169083151502179055505050565b6108b3610b3f565b60a060405190810160405280600160003373ffffffffffffffffffffffffffffffffffffffff1673ffffffffffffffffffffffffffffffffffffffff168152602001908152602001600020548152602001836000191681526020013373ffffffffffffffffffffffffffffffffffffffff168152602001600015158152602001428152509050806000803373ffffffffffffffffffffffffffffffffffffffff1673ffffffffffffffffffffffffffffffffffffffff168152602001908152602001600020600160003373ffffffffffffffffffffffffffffffffffffffff1673ffffffffffffffffffffffffffffffffffffffff168152602001908152602001600020546103e8811015156109c557fe5b60040201600082015181600001556020820151816001019060001916905560408201518160020160006101000a81548173ffffffffffffffffffffffffffffffffffffffff021916908373ffffffffffffffffffffffffffffffffffffffff16021790555060608201518160020160146101000a81548160ff021916908315150217905550608082015181600301559050506103e8600160003373ffffffffffffffffffffffffffffffffffffffff1673ffffffffffffffffffffffffffffffffffffffff16815260200190815260200160002054101515610aeb576000600160003373ffffffffffffffffffffffffffffffffffffffff1673ffffffffffffffffffffffffffffffffffffffff16815260200190815260200160002081905550610b3b565b600160003373ffffffffffffffffffffffffffffffffffffffff1673ffffffffffffffffffffffffffffffffffffffff168152602001908152602001600020600081548092919060010191905055505b5050565b60a0604051908101604052806000815260200160008019168152602001600073ffffffffffffffffffffffffffffffffffffffff1681526020016000151581526020016000815250905600a165627a7a72305820e6ab9a95311b00d2c452ee9feaa7f2083b96af90e527c1a34eceb499a4e310970029",
  "source": "pragma solidity ^0.4.24;\r\n/// @author David Li\r\n/// @notice Stores a todolist on solidity, since an array of structs cannot easily be returned\r\n/// the structs must be decomposed on the front-end\r\n/// @dev simple todolist contains id, content, owner, isCompleted and unix timestamp\r\n/// @dev one way to create a \"trello\" like application would require creating more modifiers and perhaps\r\n/// role based access control.\r\ncontract TodoList {\r\n   struct Todo {\r\n      uint256 id;\r\n      bytes32 content;\r\n      address owner;\r\n      bool isCompleted;\r\n      uint256 timestamp;\r\n   }\r\n   uint256 public constant maxAmountOfTodos = 1000;\r\n   // Owner => todos\r\n   mapping(address => Todo[maxAmountOfTodos]) public todos;\r\n   // Owner => last todo id\r\n   mapping(address => uint256) public lastIds;\r\n   modifier onlyOwner(address _owner) {\r\n      require(msg.sender == _owner);\r\n      _;\r\n   }\r\n\r\n   /// @dev Add a todo to the list\r\n   /// @param _content bytes32 todo item, this must be short\r\n   /// @notice updates mappings todos and lastIds\r\n   function addTodo(bytes32 _content) public {\r\n      Todo memory myNote = Todo(lastIds[msg.sender], _content, msg.sender, false, now);\r\n      todos[msg.sender][lastIds[msg.sender]] = myNote;\r\n      if(lastIds[msg.sender] >= maxAmountOfTodos) lastIds[msg.sender] = 0;\r\n      else lastIds[msg.sender]++;\r\n   }\r\n   /// @dev Add a todo to the list\r\n   /// @param _todoId todo item owned by only to mark as complete\r\n   /// @notice Mark a todo as completed\r\n   /// @dev only the todo item owner can mark the todo as complete\r\n   function markTodoAsCompleted(uint256 _todoId) public onlyOwner(todos[msg.sender][_todoId].owner) {\r\n      require(_todoId < maxAmountOfTodos);\r\n      require(!todos[msg.sender][_todoId].isCompleted);\r\n      todos[msg.sender][_todoId].isCompleted = true;\r\n   }\r\n   \r\n   /// @dev get number of specified todos\r\n   /// @dev consider renamng this function to returnTodos\r\n   /// @param indexes array of uints corresponding to the number of todos\r\n   /// @return decomposed arrays that mirror the struct.\r\n   function returnAllTodos(uint[] indexes) external view\r\n   returns (\r\n       uint256[],\r\n       bytes32[],\r\n       address[],\r\n       bool[],\r\n       uint256[]\r\n   )\r\n   {\r\n      uint256[] memory ids          = new uint256[](indexes.length);\r\n      bytes32[] memory contents     = new bytes32[](indexes.length);\r\n      address[] memory owners       = new address[](indexes.length);\r\n      bool[]    memory isCompleteds = new bool[](indexes.length);\r\n      uint256[] memory timestamps   = new uint256[](indexes.length);\r\n        \r\n      for (uint256 i = 0; i < indexes.length; i++) {\r\n        Todo storage todoitem = todos[msg.sender][i];\r\n        ids[i] = todoitem.id;\r\n        contents[i] = todoitem.content;\r\n        owners[i] = todoitem.owner;\r\n        isCompleteds[i] = todoitem.isCompleted;\r\n        timestamps[i] = todoitem.timestamp;\r\n      }\r\n      return (ids, contents, owners, isCompleteds, timestamps);\r\n   }\r\n}",
  "sourcePath": "C:\\Users\\wu\\Downloads\\Active Projects\\Bchain\\Vue-Dapp\\contracts\\TodoList.sol",
  "compiler": {
    "name": "solc",
    "version": "0.4.24+commit.e67f0147.Emscripten.clang"
  },
  "schemaVersion": "2.0.0",
  "updatedAt": "2018-09-09T02:06:19.680Z"
}