{
  "contractName": "TodoList",
  "abi": [
    {
      "constant": true,
      "inputs": [],
      "name": "maxAmountOfTodos",
      "outputs": [
        {
          "name": "",
          "type": "uint256"
        }
      ],
      "payable": false,
      "stateMutability": "view",
      "type": "function"
    },
    {
      "constant": true,
      "inputs": [
        {
          "name": "",
          "type": "address"
        },
        {
          "name": "",
          "type": "uint256"
        }
      ],
      "name": "todos",
      "outputs": [
        {
          "name": "id",
          "type": "uint256"
        },
        {
          "name": "content",
          "type": "bytes32"
        },
        {
          "name": "owner",
          "type": "address"
        },
        {
          "name": "isCompleted",
          "type": "bool"
        },
        {
          "name": "timestamp",
          "type": "uint256"
        }
      ],
      "payable": false,
      "stateMutability": "view",
      "type": "function"
    },
    {
      "constant": true,
      "inputs": [
        {
          "name": "",
          "type": "address"
        }
      ],
      "name": "lastIds",
      "outputs": [
        {
          "name": "",
          "type": "uint256"
        }
      ],
      "payable": false,
      "stateMutability": "view",
      "type": "function"
    },
    {
      "constant": false,
      "inputs": [
        {
          "name": "_content",
          "type": "bytes32"
        }
      ],
      "name": "addTodo",
      "outputs": [],
      "payable": false,
      "stateMutability": "nonpayable",
      "type": "function"
    },
    {
      "constant": false,
      "inputs": [
        {
          "name": "_todoId",
          "type": "uint256"
        }
      ],
      "name": "markTodoAsCompleted",
      "outputs": [],
      "payable": false,
      "stateMutability": "nonpayable",
      "type": "function"
    }
  ],
  "bytecode": "0x608060405234801561001057600080fd5b50610741806100206000396000f30060806040526004361061006d576000357c0100000000000000000000000000000000000000000000000000000000900463ffffffff168063332494a614610072578063428c18891461009d578063a747491814610152578063aaed706a146101a9578063da2f6460146101d6575b600080fd5b34801561007e57600080fd5b50610087610207565b6040518082815260200191505060405180910390f35b3480156100a957600080fd5b506100e8600480360381019080803573ffffffffffffffffffffffffffffffffffffffff1690602001909291908035906020019092919050505061020d565b6040518086815260200185600019166000191681526020018473ffffffffffffffffffffffffffffffffffffffff1673ffffffffffffffffffffffffffffffffffffffff168152602001831515151581526020018281526020019550505050505060405180910390f35b34801561015e57600080fd5b50610193600480360381019080803573ffffffffffffffffffffffffffffffffffffffff169060200190929190505050610283565b6040518082815260200191505060405180910390f35b3480156101b557600080fd5b506101d46004803603810190808035906020019092919050505061029b565b005b3480156101e257600080fd5b506102056004803603810190808035600019169060200190929190505050610436565b005b6103e881565b6000602052816000526040600020816103e88110151561022957fe5b60040201600091509150508060000154908060010154908060020160009054906101000a900473ffffffffffffffffffffffffffffffffffffffff16908060020160149054906101000a900460ff16908060030154905085565b60016020528060005260406000206000915090505481565b6000803373ffffffffffffffffffffffffffffffffffffffff1673ffffffffffffffffffffffffffffffffffffffff168152602001908152602001600020816103e8811015156102e757fe5b6004020160020160009054906101000a900473ffffffffffffffffffffffffffffffffffffffff168073ffffffffffffffffffffffffffffffffffffffff163373ffffffffffffffffffffffffffffffffffffffff1614151561034957600080fd5b6103e88210151561035957600080fd5b6000803373ffffffffffffffffffffffffffffffffffffffff1673ffffffffffffffffffffffffffffffffffffffff168152602001908152602001600020826103e8811015156103a557fe5b6004020160020160149054906101000a900460ff161515156103c657600080fd5b60016000803373ffffffffffffffffffffffffffffffffffffffff1673ffffffffffffffffffffffffffffffffffffffff168152602001908152602001600020836103e88110151561041457fe5b6004020160020160146101000a81548160ff0219169083151502179055505050565b61043e6106ca565b60a060405190810160405280600160003373ffffffffffffffffffffffffffffffffffffffff1673ffffffffffffffffffffffffffffffffffffffff168152602001908152602001600020548152602001836000191681526020013373ffffffffffffffffffffffffffffffffffffffff168152602001600015158152602001428152509050806000803373ffffffffffffffffffffffffffffffffffffffff1673ffffffffffffffffffffffffffffffffffffffff168152602001908152602001600020600160003373ffffffffffffffffffffffffffffffffffffffff1673ffffffffffffffffffffffffffffffffffffffff168152602001908152602001600020546103e88110151561055057fe5b60040201600082015181600001556020820151816001019060001916905560408201518160020160006101000a81548173ffffffffffffffffffffffffffffffffffffffff021916908373ffffffffffffffffffffffffffffffffffffffff16021790555060608201518160020160146101000a81548160ff021916908315150217905550608082015181600301559050506103e8600160003373ffffffffffffffffffffffffffffffffffffffff1673ffffffffffffffffffffffffffffffffffffffff16815260200190815260200160002054101515610676576000600160003373ffffffffffffffffffffffffffffffffffffffff1673ffffffffffffffffffffffffffffffffffffffff168152602001908152602001600020819055506106c6565b600160003373ffffffffffffffffffffffffffffffffffffffff1673ffffffffffffffffffffffffffffffffffffffff168152602001908152602001600020600081548092919060010191905055505b5050565b60a0604051908101604052806000815260200160008019168152602001600073ffffffffffffffffffffffffffffffffffffffff1681526020016000151581526020016000815250905600a165627a7a72305820a060503bcef3af3820d32bbde6b1633ba021228ef85118eebb8cf5c55fad7a990029",
  "source": "pragma solidity ^0.4.24;\ncontract TodoList {\n   struct Todo {\n      uint256 id;\n      bytes32 content;\n      address owner;\n      bool isCompleted;\n      uint256 timestamp;\n   }\n   uint256 public constant maxAmountOfTodos = 1000;\n   // Owner => todos\n   mapping(address => Todo[maxAmountOfTodos]) public todos;\n   // Owner => last todo id\n   mapping(address => uint256) public lastIds;\n   modifier onlyOwner(address _owner) {\n      require(msg.sender == _owner);\n      _;\n   }\n   // Add a todo to the list\n   function addTodo(bytes32 _content) public {\n      Todo memory myNote = Todo(lastIds[msg.sender], _content, msg.sender, false, now);\n      todos[msg.sender][lastIds[msg.sender]] = myNote;\n      if(lastIds[msg.sender] >= maxAmountOfTodos) lastIds[msg.sender] = 0;\n      else lastIds[msg.sender]++;\n   }\n   // Mark a todo as completed\n   function markTodoAsCompleted(uint256 _todoId) public onlyOwner(todos[msg.sender][_todoId].owner) {\n      require(_todoId < maxAmountOfTodos);\n      require(!todos[msg.sender][_todoId].isCompleted);\n      todos[msg.sender][_todoId].isCompleted = true;\n   }\n}",
  "sourcePath": "/home/travis/build/FriendlyUser/Vue-Dapp/contracts/TodoList.sol",
  "compiler": {
    "name": "solc",
    "version": "0.4.24+commit.e67f0147.Emscripten.clang"
  },
  "schemaVersion": "2.0.1",
  "updatedAt": "2018-09-03T20:15:26.508Z"
}